S012000041546D656761333238702E73726563D6
S11300000C9434000C943E000C943E000C943E007E
S11300100C943E000C943E000C943E000C943E0064
S11300200C943E000C943E000C943E000C943E0054
S11300300C943E000C943E000C943E000C943E0044
S11300400C943E000C943E000C943E000C943E0034
S11300500C943E000C943E000C943E000C943E0024
S11300600C943E000C943E0011241FBECFEFD8E048
S1130070DEBFCDBF0E9447000C94EC000C9400003E
S1130080519A549A579A8BB18D768BB908950E94E0
S1130090400080E036E040E0242F1BC09BB19D76F9
S11300A09BB95FEF67EE73E0515060407040E1F739
S11300B000C000009BB192699BB99FEF57EE63E0CB
S11300C0915050406040E1F700C000008F5F01C0D4
S11300D0842F853018F38BB182698BB9932F39C083
S11300E0811102C0599A08C0813011F45C9A08C089
S11300F0823011F45F9A12C0833011F45F981BC0F0
S1130100843061F45C987FEF5AE663E071505040AC
S11301106040E1F700C000008F5FE2CF853059F402
S113012059987FEF8AE653E0715080405040E1F7E0
S113013000C000000CC06FEF7AE653E061507040DD
S11301405040E1F700C000008F5F863049F69150BF
S113015011F0822FC5CF8BB182698BB9932F3AC02E
S1130160811102C05F9A08C0813011F45C9A08C002
S1130170823011F4599A12C0833011F459981BC07B
S1130180843061F45C986FEF7AE653E0615070401C
S11301905040E1F700C000008F5FE2CF853059F492
S11301A05F986FEF7AE683E0615070408040E1F73A
S11301B000C000000CC05FEF6AE673E0515060407D
S11301C07040E1F700C000008F5F863049F691501F
S10F01D009F47ECF822FC4CFF894FFCF37
S9030000FC
