:100000000C94340018950000189500001895000015
:10001000189500001895000018950000189500002C
:10002000189500001895000018950000189500001C
:10003000189500001895000018950000189500000C
:1000400018950000189500001895000018950000FC
:1000500018950000189500001895000018950000EC
:1000600018950000189500008FEF8DBFC8EDE0ECEB
:100070004E2E88E08EBFD8E0F8E05F2EA89584B7BA
:10008000082E877F84BF88E1992780936000909332
:100090006000EEEFF7E0A0E0B1E088278D933197A4
:1000A000E9F76624519A5998549A5C98579A5F9840
:1000B000E1E0F0E00E94B400599A8CE291E00E94E5
:1000C000C3005C9A8CE291E00E94C3005F9A8CE2CC
:1000D00091E00E94C3005F988CE291E00E94C3000F
:1000E0005C988CE291E00E94C30059988CE291E008
:1000F0000E94C300599A5C9A5F9A84E690E00E943D
:10010000C30059985C985F9884E690E00E94C30011
:10011000599A5C9A5F9A84E690E00E94C3005998CD
:100120005C985F9884E690E00E94C300599A5C9ABC
:100130005F9A84E690E00E94C30059985C985F98AB
:1001400084E690E00E94C300599A5C9A5F9A84E624
:1001500090E00E94C30059985C985F9884E690E014
:100160000E94C3000C945C0088EE93E00CD03197A1
:10017000D9F708953197F1F70895689462F80895D2
:10018000E89462F80895EF93FF93EE27E82BE92BAC
:1001900031F0E0EAFFE03197F1F70197D1F7FF91F5
:0401A000EF9108953E
:00000001FF
