:020000040000FA
:100000000C9463000C948B000C948B000C948B006C
:100010000C948B000C948B000C948B000C948B0034
:100020000C948B000C948B000C948B000C94FD07AB
:100030000C948B000C948B000C948B000C948B0014
:100040000C94B3070C948B000C9481070C945B0701
:100050000C948B000C948B000C948B000C948B00F4
:100060000C948B000C948B000000000024002700EF
:100070002A0000000000250028002B0000000008D6
:10008000000201000003040700000000000000005F
:1000900000000000230026002900040404040404D6
:1000A0000404020202020202030303030303010227
:1000B00004081020408001020408102001020408F6
:1000C0001020B908EF0D11241FBECFEFD8E0DEBF1E
:1000D000CDBF12E0A0E0B1E0E0EEF6E202C0059094
:1000E0000D92A830B107D9F723E0A8E0B2E001C033
:1000F0001D92A930B207E1F710E0C2E6D0E004C0DB
:100100002197FE010E943F11C136D107C9F70E9415
:100110003E090C9463130C9400008F929F92AF924F
:10012000BF92FF920F931F93CF93DF93F090020340
:100130002BE02F1508F451C02091040308E512E0CC
:10014000021B110927FD1395000F111F000F111F2E
:1001500020910303C8E8D0E0C21BD10927FDD39545
:10016000CC0FDD1FCC0FDD1F4E010D2E000CAA0899
:10017000BB08DC01853B910514F0A4EBB0E09801CD
:10018000012E000C440B550B281939094A095B094B
:100190000E94AB0F24EB30E040E050E00E94810F62
:1001A000820E931EA41EB51E8C169D062CF0E8012F
:1001B000801691060CF4E4012297CC0FDD1F2FB7B7
:1001C000F8948F2D90E0FC01EE0FFF1FE80FF91F50
:1001D000E254FD4FD283C1832FBFDF91CF911F9196
:1001E0000F91FF90BF90AF909F908F900895CF9206
:1001F000DF92EF92FF92CF93DF93B091F602A0E0EF
:100200008111AB2F8091F70290E0880F991FAC010C
:1002100040575F4FC090FC02D090FD02E090FE027C
:10022000F090FF0230E020E0FA01C591D491E8811E
:10023000B90190E080E0EB23EA130AC02F5F3F4F43
:100240006C157D058E059F0578F36FEF7FEFCB0171
:10025000DF91CF91FF90EF90DF90CF900895AF9214
:10026000BF92CF92DF92EF92FF920F931F93CF93A3
:10027000DF936C017B018B01040F151FEB015E0105
:10028000AE18BF08C017D10759F06991D601ED919A
:10029000FC910190F081E02DC6010995892B79F739
:1002A000C501DF91CF911F910F91FF90EF90DF90EB
:1002B000CF90BF90AF900895FC01538D448D252FB2
:1002C00030E0842F90E0821B930B541710F0CF96F0
:1002D000089501970895FC01918D828D981761F022
:1002E000A28DAE0FBF2FB11D5D968C91928D9F5F39
:1002F0009F73928F90E008958FEF9FEF0895FC0118
:10030000918D828D981731F0828DE80FF11D858DCA
:1003100090E008958FEF9FEF0895FC01918D228D5D
:10032000892F90E0805C9F4F821B91098F739927E2
:10033000089581E292E00E948D0121E0892B09F469
:1003400020E0822F0895FC01A48DA80FB92FB11DC4
:10035000A35ABF4F2C91848D90E001968F739927FB
:10036000848FA689B7892C93A089B1898C918370D9
:1003700080648C93938D848D981306C00288F389D2
:10038000E02D80818F7D80830895EF92FF920F93FF
:100390001F93CF93DF93EC0181E0888F9B8D8C8D31
:1003A00098131AC0E889F989808185FF15C09FB725
:1003B000F894EE89FF896083E889F98980818370E8
:1003C000806480839FBF81E090E0DF91CF911F9197
:1003D0000F91FF90EF900895F62E0B8D10E00F5FB8
:1003E0001F4F0F731127E02E8C8D8E110CC00FB68E
:1003F00007FCFACFE889F989808185FFF5CFCE0126
:100400000E94A301F1CFEB8DEC0FFD2FF11DE35AFC
:10041000FF4FF0829FB7F8940B8FEA89FB898081A8
:100420008062CFCFCF93DF93EC01888D8823B9F022
:10043000AA89BB89E889F9898C9185FD03C08081EF
:1004400086FD0DC00FB607FCF7CF8C9185FFF2CF6C
:10045000808185FFEDCFCE010E94A301E9CFDF911E
:10046000CF91089590E0FC01E458FF4F2491FC01E6
:10047000E255FF4F3491FC01E656FF4FE491EE2325
:10048000C9F0222339F0233001F1A8F4213019F109
:10049000223029F1F0E0EE0FFF1FEE58FF4FA5913B
:1004A000B4918FB7F894EC91611126C030953E233A
:1004B0003C938FBF08952730A9F02830C9F024302D
:1004C00049F7809180008F7D03C0809180008F77F5
:1004D00080938000DFCF84B58F7784BDDBCF84B578
:1004E0008F7DFBCF8091B0008F778093B000D2CF0B
:1004F0008091B0008F7DF9CF3E2BDACFCF93DF9381
:1005000090E0FC01E255FF4F249186569F4FFC017D
:1005100084918823D1F090E0880F991FFC01E8595D
:10052000FF4FA591B491FC01EE58FF4FC591D491B6
:10053000623071F49FB7F8943C91822F80958323A9
:100540008C93E8812E2B28839FBFDF91CF91089554
:100550008FB7F894EC912E2B2C938FBFF6CF3FB72B
:10056000F89480910A0290910B02A0910C02B09134
:100570000D0226B5A89B05C02F3F19F00196A11DBD
:10058000B11D3FBFBA2FA92F982F8827BC01CD01DD
:10059000620F711D811D911D42E0660F771F881F3C
:1005A000991F4A95D1F708958F929F92AF92BF926B
:1005B000CF92DF92EF92FF924B015C010E94AF025B
:1005C0006B017C010E94AF026C197D098E099F09A5
:1005D000683E734081059105A8F321E0821A9108D5
:1005E000A108B10888EEC80E83E0D81EE11CF11CFA
:1005F00081149104A104B10429F7FF90EF90DF90DA
:10060000CF90BF90AF909F908F900895CF92DF9240
:10061000EF92FF920F931F93CF93DF93CDB7DEB787
:10062000C054D1400FB6F894DEBF0FBECDBF2FB778
:10063000F89480911D0290911E02A0911F02B0912A
:1006400020022FBF4091F8025091F9026091FA0206
:100650007091FB028C019D01041B150B260B370BBF
:10066000B901A801403D57406105710590F48091A2
:100670000003C05CDE4F0FB6F894DEBF0FBECDBFE7
:10068000DF91CF911F910F91FF90EF90DF90CF906E
:1006900008958093F8029093F902A093FA02B09320
:1006A000FB021092F3021092F2021092F1021092E9
:1006B000F0021092EF0262E08091F4020E947E024A
:1006C00061E070E080E090E00E94D40261E08091FF
:1006D000F4020E947E0260E08091F4020E943202E5
:1006E0008091F5028551823020F58BE291E10197EE
:1006F000F1F762E08091F4020E947E028091010392
:1007000090E08230910538F0880F991F880F991F6B
:1007100005970197F1F7F89480E00E94F7006F3F8A
:100720007F4F8F4F9F4F61F410920003789480E0C9
:10073000A0CF64E170E080E090E00E94D402D9CFC5
:1007400081E00E94F7006F3F7F4F8F4F9F4F61F313
:100750008E010F5F1F4F6E018FEBC81A8EEFD80A04
:10076000780180E00E94F700F70160837183828343
:10077000938381E00E94F700F70164837583868389
:100780009783F8E0EF0EF11CEC14FD0451F7789418
:1007900030E020E0F801C080D180E280F380448125
:1007A000558166817781FFEFCF16DF06EF06FF06E2
:1007B00031F04F3F8FEF58076807780719F4109210
:1007C0000003B5CFF90183E0F595E7958A95E1F748
:1007D000E151FD4F8081880FC416D506E606F70665
:1007E00010F180832F5F3F4F085F1F4F2832310584
:1007F00089F64091F3022091EF028091F002280FD8
:100800003327331F8091F102280F311D8091F202AE
:10081000820F932F911D99274817190681F681E0C1
:100820008093000326CF8160DCCFFC010190002083
:10083000E9F73197AF01481B590BBC0181E292E007
:100840000C942F018F929F92AF92BF920F931F93A0
:10085000CF93DF93CDB7DEB7A1970FB6F894DEBF85
:100860000FBECDBF19A2423008F44AE08E010F5DE1
:100870001F4F842E912CB12CA12CA50194010E9414
:10088000EA0FE62FB901CA01EA30F4F4E05DD801BD
:10089000EE938D01232B242B252B79F790E080E01C
:1008A000109719F0CD010E941504A1960FB6F89487
:1008B000DEBF0FBECDBFDF91CF911F910F91BF90D3
:1008C000AF909F908F900895E95CE1CF4F925F9237
:1008D0006F927F928F929F92AF92BF92CF92DF9250
:1008E000EF92FF920F931F93CF936B017C01742EB5
:1008F000AC019B010E942E11882399F089E191E0BF
:10090000CF911F910F91FF90EF90DF90CF90BF900C
:10091000AF909F908F907F906F905F904F900C94CE
:10092000150446015701E894B7F82FEF3FEF4FE762
:100930005FE7C501B4010E942E1181110DC02FEF98
:100940003FEF4FE75FE7C501B4010E945D0E181647
:100950001CF48DE191E0D4CF2FEF3FEF4FE75FE440
:10096000C701B6010E94291118161CF481E291E01A
:10097000C7CF2FEF3FEF4FE75FECC701B6010E94F3
:100980005D0E87FDF3CF20E030E0A901C701B6017D
:100990000E945D0E10E000E087FF0AC06DE281E278
:1009A00092E00E94C5018C01F7FAF094F7F8F094F8
:1009B000C0E060E070E080E09FE37C1641F020E062
:1009C00030E040E251E40E948810CF5FF6CFA701EB
:1009D00096010E941C102B013C010E94FA104B0151
:1009E0005C014AE00E9422047C01E00EF11ECC234F
:1009F000C1F1C501B4010E94620E9B01AC01C301AB
:100A0000B2010E941B104B015C016EE281E292E098
:100A10000E94C501E80EF91EC15018F120E030E037
:100A200040E251E4C501B4010E94C30E2B013C0118
:100A30000E94FA104B01B12CA12C4AE0C501B4016F
:100A40000E942204E80EF91EC501B4010E94620E44
:100A50009B01AC01C301B2010E941B104B015C0160
:100A6000DBCFC701CF911F910F91FF90EF90DF90E7
:100A7000CF90BF90AF909F908F907F906F905F903E
:100A80004F9008952F923F924F925F926F927F9274
:100A90008F929F92AF92BF92CF92DF92EF92FF928E
:100AA0000F931F93CF93DF936090E7027090E8025B
:100AB0006114710409F410C1FC01848095808114D3
:100AC000910409F409C18B017C01FB01C480D5802C
:100AD000C818D908C091E302D091E402C114D1042E
:100AE000B9F4F70160817181CE010E944913EC01D4
:100AF000009709F4F1C0F80160817181448155814A
:100B00000E942713F80184819581C80FD91FE9CF6E
:100B1000D7FC10C0FC01408051805301CE01B201CE
:100B20000E944913009709F44CC0880D991DAC0C24
:100B3000BD1CF5CF5E01F70160817181CE010E947D
:100B400049133C01009739F14C018C1A9D0AA4010C
:100B5000BE01C5010E942713A80CB91CF8016081D1
:100B6000718144815581C5010E942713F801848158
:100B70009581A80EB91EF701C481D581C60DD71D78
:100B80008091E7029091E8028C0D9D1D9093E80200
:100B90008093E702D0CFBE01C501DF91CF911F91B5
:100BA0000F91FF90EF90DF90CF90BF90AF909F900C
:100BB0008F907F906F905F904F903F902F900C940C
:100BC00042136A147B0409F487C08091E502909176
:100BD000E6028A159B0588F4B5016F5F7F4FCE0151
:100BE0000E946A12009709F477C09093E402809300
:100BF000E302B092E602A092E502C091E702D09132
:100C0000E8022197D7FD68C04E01F7014480558066
:100C10004114510409F460C0A090E702B090E802CA
:100C2000A114B10409F458C0A414B50408F454C0C4
:100C3000CA15DB0520F04501F1E08F1A910860909C
:100C4000E3027090E402C301CFEFDFEF1301280C41
:100C5000391C2816390688F0F701608171810E94DD
:100C60004913009751F09C01261937098216930603
:100C700008F49E010196E901ECCFD7FD2DC04C0E82
:100C80005D1EC301840D951DA50144195509BC01C4
:100C90008C0D9D1D0E9430138091E7029091E80217
:100CA0008C0D9D1D9093E8028093E7022091E30252
:100CB0003091E402820F931FFC0110828091E302C5
:100CC0009091E402F80160817181448155818C0F1B
:100CD0009D1F0E94271395CFDF91CF911F910F91F8
:100CE000FF90EF90DF90CF90BF90AF909F908F904C
:100CF0007F906F905F904F903F902F9008950F934B
:100D00001F93CF93DF93EC0188819981009759F06D
:100D10002A813B812617370730F081E0DF91CF91A0
:100D20001F910F9108958B016F5F7F4F0E946A1290
:100D3000009759F0998388831B830A832C813D8116
:100D4000232B59F7FC011082E8CF80E0E7CFEF9228
:100D5000FF920F931F93CF93DF936115710541F4B9
:100D600080E0DF91CF911F910F91FF90EF90089558
:100D700041155105B1F07B01EC010C811D81040F7F
:100D8000151FB8010E947F06882351F328813981FD
:100D90008C819D81B701820F931F0E9442131D8396
:100DA0000C8381E0DECF0F931F93CF93DF9300D0AE
:100DB000CDB7DEB701E081E292E00E948D01892B80
:100DC000B9F081E292E00E946B01182F80931A0221
:100DD00089831A8241E050E0BE016F5F7F4F83EE4E
:100DE00092E00E94A706133231F700931C02E3CF72
:100DF0000F900F90DF91CF911F910F9108950E9456
:100E0000990181110C94D3060895CF93DF93EC01DF
:100E100088819981009711F00E94E111198218824E
:100E20001D821C821B821A82DF91CF910895EF925E
:100E3000FF920F931F93CF93DF93EC017B018A0105
:100E4000BA010E947F0681110BC0CE010E940507E6
:100E5000CE01DF91CF911F910F91FF90EF900895F8
:100E60001D830C83B701888199810E944213F0CFC2
:100E7000FB0101900020E9F73197AF01461B570BAA
:100E80000C941707FC0111821082138212821582C2
:100E90001482FB0101900020E9F73197AF01461B56
:100EA000570B0C941707FC0180819181009711F07A
:100EB0000C94E11108951F920F920FB60F92112416
:100EC0002F933F934F935F936F937F938F939F9352
:100ED000AF93BF93EF93FF9381E292E00E94A3014F
:100EE000FF91EF91BF91AF919F918F917F916F9102
:100EF0005F914F913F912F910F900FBE0F901F90D8
:100F000018951F920F920FB60F9211242F938F9363
:100F10009F93EF93FF93E0913102F0913202808131
:100F2000E0913702F091380282FD1BC090818091E0
:100F30003A028F5F8F7320913B02821741F0E0915C
:100F40003A02F0E0EF5DFD4F958F80933A02FF91FA
:100F5000EF919F918F912F910F900FBE0F901F9047
:100F600018958081F4CF1F920F920FB60F92112423
:100F70002F933F938F939F93AF93BF9380911D02C5
:100F800090911E02A0911F02B0912002309109029F
:100F900023E0230F2D3758F50196A11DB11D209395
:100FA000090280931D0290931E02A0931F02B0932A
:100FB000200280910A0290910B02A0910C02B09144
:100FC0000D020196A11DB11D80930A0290930B02A0
:100FD000A0930C02B0930D02BF91AF919F918F919E
:100FE0003F912F910F900FBE0F901F90189526E8FC
:100FF000230F0296A11DB11DD2CF1F920F920FB6E3
:101000000F9211242F933F934F935F936F937F938E
:101010008F939F93AF93BF93CF93DF93EF93FF9300
:1010200080910802C091E202D0E087FF24C01092B4
:10103000850010928400809108028F5F80930802DF
:1010400080910802082E000C990B8C179D0724F440
:10105000809108028C30C4F18091840090918500C9
:10106000049680349C4908F47AC080918400909161
:101070008500049676C080910802082E000C990B1A
:101080008C179D07C4F6E09108028E2FEE0F990B86
:10109000FC01EE0FFF1FE80FF91FE254FD4F8081A6
:1010A00086FFC9CFE09108028E2FEE0F990BFC014D
:1010B000EE0FFF1FE80FF91FE254FD4F808160E043
:1010C0008F730E943202B7CF209184003091850047
:1010D000E09108028E2FEE0F990BFC01EE0FFF1F1F
:1010E000E80FF91FE254FD4F81819281820F931F17
:1010F0009093890080938800E09108028E2FEE0F74
:10110000990BFC01EE0FFF1FE80FF91FE254FD4F92
:10111000808186FF11C0E09108028E2FEE0F990B9F
:10112000FC01EE0FFF1FE80FF91FE254FD4F808115
:1011300061E08F730E943202FF91EF91DF91CF91B6
:10114000BF91AF919F918F917F916F915F914F91DF
:101150003F912F910F900FBE0F901F90189580E434
:101160009CE990938900809388008FEF8093080218
:10117000E3CF109224021092230288EE93E0A0E0C5
:10118000B0E08093250290932602A0932702B093AB
:1011900028028BE091E0909322028093210285EC5B
:1011A00090E090932E0280932D0284EC90E0909337
:1011B000300280932F0280EC90E090933202809373
:1011C000310281EC90E0909334028093330282EC00
:1011D00090E0909336028093350286EC90E09093F5
:1011E00038028093370210923A0210923B0210921A
:1011F0003C0210923D028091E2028C3008F03AC02D
:1012000091E0980F9093E2028093020390E0FC013A
:10121000EE0FFF1FE80FF91FE254FD4F88EB9BE034
:101220009283818385E08093F40286E18093F502C6
:10123000E3EBF0E0E491E093F602EFE9F0E0E49113
:10124000E093F70280E89EE3A0E0B0E08093FC0228
:101250009093FD02A093FE02B093FF026DE371E054
:1012600089EE92E00E9442076DE371E083EE92E026
:101270000C9442078FEF80930203D4CFCF93DF9378
:10128000CDB7DEB72F970FB6F894DEBF0FBECDBF38
:10129000789484B5826084BD84B5816084BD85B551
:1012A000826085BD85B5816085BD80916E0081605D
:1012B00080936E0010928100809181008260809303
:1012C0008100809181008160809381008091800005
:1012D0008160809380008091B10084608093B10030
:1012E0008091B00081608093B00080917A0084602A
:1012F00080937A0080917A00826080937A00809156
:101300007A00816080937A0080917A00806880936F
:101310007A001092C100E0913102F091320282E035
:101320008083E0912D02F0912E021082E0912F0235
:10133000F09130028FEC808310923902E0913502F7
:10134000F091360286E08083E0913302F09134021E
:10135000808180618083E0913302F091340280814A
:1013600088608083E0913302F0913402808180684C
:101370008083E0913302F091340280818F7D8083FD
:1013800061E086E00E947E0261E087E00E947E02CA
:1013900061E088E00E947E0261E084E00E947E02BB
:1013A00060E086E00E94320260E087E00E94320244
:1013B00060E088E00E94320261E084E00E94320234
:1013C00062E08091F4020E947E022FB7F89480912F
:1013D0001D0290911E02A0911F02B09120022FBF0A
:1013E000805D9740A109B1098093F8029093F902BA
:1013F000A093FA02B093FB0287E3809301038091EC
:1014000002038C3008F051C061E08AE00E947E0245
:1014100080910203282F30E0F901EE0FFF1FE20F49
:10142000F31FE254FD4F9081907C9A60908310925C
:101430000303109204032CE0622F0E943311829F59
:10144000B001112430E020E0AB01420F531FFA013C
:10145000EE0FFF1FE40FF51FE254FD4F908196FD44
:1014600016C02F5F3F4F2C30310571F781110FC02F
:101470001092800082E0809381001092850010928B
:101480008400B19A80916F00826080936F00E09138
:1014900002038E2F90E0FC01EE0FFF1FE80FF91FF3
:1014A000E254FD4F80818064808390E080E00E9460
:1014B0008D0085E291E00E9415048BE391E00E948B
:1014C000150400E280911C02882309F42AC265E019
:1014D00070E080E090E00E94D4028091E702909159
:1014E000E802892B09F4BCC1E091E302F091E40227
:1014F000309709F4B5C11081109300016DE371E0DC
:10150000CE0101960E94420760ED71E0CE010A967D
:101510000E944207BE016F5F7F4FCE010A960E9474
:101520004205CE010A960E945307CE0101960E9401
:1015300053076DE371E0CE0101960E9442076EE30E
:1015400071E0CE010A960E944207BE016F5F7F4F95
:10155000CE010A960E944205CE010A960E945307C8
:10156000CE0101960E9453076DE371E0CE01019612
:101570000E94420760E471E0CE010A960E94420791
:10158000BE016F5F7F4FCE010A960E944205CE01D9
:101590000A960E945307CE0101960E9453076DE3FD
:1015A00071E0CE0101960E94420762E471E0CE0133
:1015B0000A960E944207BE016F5F7F4FCE010A96D6
:1015C0000E944205CE010A960E945307CE01019661
:1015D0000E9453076DE371E0CE0101960E9442071D
:1015E00064E471E0CE010A960E944207BE016F5F7B
:1015F0007F4FCE010A960E944205CE010A960E94B4
:101600005307CE0101960E9453076DE371E0CE01AE
:1016100001960E94420766E471E0CE010A960E949C
:101620004207BE016F5F7F4FCE010A960E944205BE
:10163000CE010A960E945307CE0101960E945307DD
:101640006DE371E0CE0101960E94420768E471E00B
:10165000CE010A960E944207BE016F5F7F4FCE0106
:101660000A960E944205CE010A960E945307CE01B7
:1016700001960E9453076DE371E0CE0101960E942E
:1016800042076AE471E0CE010A960E944207BE0159
:101690006F5F7F4FCE010A960E944205CE010A96E7
:1016A0000E945307CE0101960E9453076DE371E03B
:1016B000CE0101960E9442076CE471E0CE010A96C9
:1016C0000E944207BE016F5F7F4FCE010A960E94C3
:1016D0004205CE010A960E945307CE0101960E9450
:1016E00053076DE371E0CE0101960E9442076EE45C
:1016F00071E0CE010A960E944207BE016F5F7F4FE4
:10170000CE010A960E944205CE010A960E94530716
:10171000CE0101960E9453076DE371E0CE01019660
:101720000E94420766E072E0CE010A960E944207DC
:10173000BE016F5F7F4FCE010A960E944205CE0127
:101740000A960E945307CE0101960E945307113456
:1017500009F088C061E086E00E94320260E571E035
:1017600089EE92E00E94380765E070E080E090E04A
:101770000E94D402103509F05AC08091E302909182
:10178000E40260E0009711F00E94F70D60931B02E5
:10179000E62EF12CC7010E948D001B861A861D863D
:1017A0001C861F861E864AE0BE016F5F7F4FC70101
:1017B0000E94330EBE016F5F7F4FCE010A960E94DA
:1017C000380762EC71E0CE0101960E9442074E8517
:1017D0005F856A857B85CE0101960E94A7068111EF
:1017E00004C0CE0101960E94050741E050E066E08A
:1017F00072E0CE0101960E94A706811104C0CE01BD
:1018000001960E94050769817A816115710509F4C5
:1018100069C04D815E8189EE92E00E941707CE017A
:1018200001960E945307CE010A960E9453074091E9
:10183000ED025091EE026091E9027091EA0281E2BC
:1018400092E00E942F0181E292E00E948D01181621
:1018500019060CF04CC081E292E00E946B01F3CFBC
:1018600010E04ACE123439F460E086E00E94320281
:101870006EE571E075CF133439F461E087E00E94C2
:1018800032026DE671E06CCF143439F460E087E029
:101890000E9432026BE771E063CF153439F461E0E6
:1018A00088E00E9432026AE871E05ACF163439F4B7
:1018B00060E088E00E94320268E971E051CF17349D
:1018C00039F460E084E00E94320267EA71E048CFB8
:1018D000183409F049CF61E084E00E94320264EBE1
:1018E00071E03ECF89EE92E00E94050798CF81E239
:1018F00092E00E94120268EE73E080E090E00E94A5
:10190000D4026DE371E089EE92E00E943807009303
:101910001A0210921C026DE371E083EE92E00E94C5
:1019200038078FB7F89440911D0250911E026091C4
:101930001F02709120028FBF8091160290911702B2
:10194000A0911802B091190288519C4FAF4FBF4F20
:1019500084179507A607B70708F039C12FB7F89481
:1019600080911D0290911E02A0911F02B091200251
:101970002FBF8093160290931702A0931802B09382
:1019800019020E940603882351F08091F5028B30E2
:1019900030F08D3058F08551823008F440C0812CF1
:1019A000912C20ECA22E2FE7B22E1EC06091F002E7
:1019B00070E090E080E00E94640E2DEC3CEC4CEC7A
:1019C0005DE30E94C30E6B017C016091EF0270E049
:1019D00090E080E00E94640E9B01AC01C701B6015B
:1019E0000E941C104B015C01809212029092130223
:1019F000A0921402B09215020E940603882341F0BF
:101A00008091F5028C3009F4B9C0D8F48B3091F193
:101A1000C12CD12C80ECE82E8FE7F82E55C06091B8
:101A2000EF027091F00276276727762790E080E03A
:101A30000E94620E2DEC3CEC4CEC5DE30E94C30E68
:101A4000D1CF8551823020F71091F102612F70E0E3
:101A5000762F662766277F778091F202682B90E0C9
:101A600080E00E94620E2DEC3CEC4CEC5DE30E94A9
:101A7000C30EA0C06091F10270E090E080E00E948F
:101A8000620E6B017C011091F20217FF0AC0AC01DB
:101A90009B0160E070E080E89FEB0E941B106B01EF
:101AA0007C011F70612F70E090E080E00E94640E66
:101AB0002DEC3CEC4CEC5DE30E94C30EA7019601BB
:101AC0000E941C106B017C01C0920E02D0920F028A
:101AD000E0921002F0921102A5019401C501B40137
:101AE0000E942E11811108C0A7019601C701B601FD
:101AF0000E942E118823C1F082ED91E00E9415040E
:101B00008BE391E00E9415041092120210921302CE
:101B1000109214021092150210920E0210920F02EF
:101B20001092100210921102609112027091130231
:101B3000809114029091150242E00E94660482E0B6
:101B400092E00E94150460910E0270910F02809144
:101B500010029091110242E00E94660484E092E03B
:101B60000E94150481E292E00E948D011816190668
:101B700054F581E292E00E946B01F4CF1091F102E2
:101B8000612F70E090E080E00E94620E6B017C01AA
:101B90006091F2026F7070E090E080E00E94640E4D
:101BA0002DEC3CEC4CEC5DE30E94C30EA7019601CA
:101BB0000E941C106B017C0117FF86CFF7FAF0948E
:101BC000F7F8F09481CF81E292E00E9412020E9425
:101BD0009901882309F476CC0E94D30673CC83EE56
:101BE00092E00E94530789EE92E00C9453071F93F2
:101BF000FC0199278827BC01E89411911032E9F380
:101C0000193010F01E30C8F31B3251F01D3249F468
:101C1000689406C00E941E0E610F711D811D911DEA
:101C2000119110531A30B0F33EF490958095709551
:101C300061957F4F8F4F9F4F1F910895592F482FC8
:101C4000372F262F660F771F881F991F660F771F64
:101C5000881F991F620F731F841F951F660F771FC0
:101C6000881F991F0895BB27FB015527AA27880FB6
:101C7000991FAA1FA41710F0A41B83955051B9F700
:101C8000A05DAA3308F0A95DA193009779F7B1117F
:101C9000B1931192CB010C944D0EDC01FC01672F26
:101CA00071917723E1F7329704C07C916D93708333
:101CB0006291AE17BF07C8F308950E949F0E08F403
:101CC00081E00895E89409C097FB3EF490958095D3
:101CD000709561957F4F8F4F9F4F9923A9F0F92FF2
:101CE00096E9BB279395F695879577956795B79570
:101CF000F111F8CFFAF4BB0F11F460FF1BC06F5F56
:101D00007F4F8F4F9F4F16C0882311F096E911C067
:101D1000772321F09EE8872F762F05C0662371F088
:101D200096E8862F70E060E02AF09A95660F771F9C
:101D3000881FDAF7880F9695879597F90895990F78
:101D40000008550FAA0BE0E8FEEF16161706E80785
:101D5000F907C0F012161306E407F50798F0621BA6
:101D6000730B840B950B39F40A2661F0232B242B7B
:101D7000252B21F408950A2609F4A140A6958FEF9A
:101D8000811D811D08950E94D60E0C94470F0E945C
:101D9000390F38F00E94400F20F0952311F00C9479
:101DA000300F0C94360F11240C947B0F0E94580FA7
:101DB00070F3959FC1F3950F50E0551F629FF0019E
:101DC000729FBB27F00DB11D639FAA27F00DB11DB7
:101DD000AA1F649F6627B00DA11D661F829F222740
:101DE000B00DA11D621F739FB00DA11D621F839FC7
:101DF000A00D611D221F749F3327A00D611D231F9D
:101E0000849F600D211D822F762F6A2F11249F57EA
:101E100050409AF0F1F088234AF0EE0FFF1FBB1FED
:101E2000661F771F881F91505040A9F79E3F5105AC
:101E300080F00C94300F0C947B0F5F3FE4F3983EDE
:101E4000D4F3869577956795B795F795E7959F5F56
:101E5000C1F7FE2B880F911D9695879597F90895E8
:101E600097F99F6780E870E060E008959FEF80EC4D
:101E7000089500240A9416161706180609060895F0
:101E800000240A9412161306140605060895092E56
:101E90000394000C11F4882352F0BB0F40F4BF2BC5
:101EA00011F460FF04C06F5F7F4F8F4F9F4F089505
:101EB00057FD9058440F551F59F05F3F71F04795FB
:101EC000880F97FB991F61F09F3F79F087950895E0
:101ED000121613061406551FF2CF4695F1DF08C0FF
:101EE000161617061806991FF1CF8695710561051C
:101EF00008940895E894BB2766277727CB0197F9C4
:101F00000895052E97FB1EF400940E94980F57FD2C
:101F100007D00E94EA0F07FC03D04EF40C94980FF0
:101F200050954095309521953F4F4F4F5F4F089505
:101F300090958095709561957F4F8F4F9F4F089535
:101F40000E940C10A59F900DB49F900DA49F800D32
:101F5000911D11240895B7FF0C94A00F0E94A00FAB
:101F6000821B930B08952F923F924F925F926F9234
:101F70007F928F929F92AF92BF92CF92DF92EF9219
:101F8000FF920F931F93CF93DF93CDB7DEB7CA1B9A
:101F9000DB0B0FB6F894DEBF0FBECDBF09942A88C5
:101FA000398848885F846E847D848C849B84AA846D
:101FB000B984C884DF80EE80FD800C811B81AA81FA
:101FC000B981CE0FD11D0FB6F894DEBF0FBECDBFC5
:101FD000ED010895A1E21A2EAA1BBB1BFD010DC045
:101FE000AA1FBB1FEE1FFF1FA217B307E407F507C9
:101FF00020F0A21BB30BE40BF50B661F771F881FA5
:10200000991F1A9469F760957095809590959B013A
:10201000AC01BD01CF010895A29FB001B39FC001E3
:10202000A39F700D811D1124911DB29F700D811D04
:102030001124911D08955058BB27AA270E943310E0
:102040000C94470F0E94390F38F00E94400F20F087
:1020500039F49F3F19F426F40C94360F0EF4E095F2
:10206000E7FB0C94300FE92F0E94580F58F3BA1772
:10207000620773078407950720F079F4A6F50C949E
:102080007A0F0EF4E0950B2EBA2FA02D0B01B9019B
:1020900090010C01CA01A0011124FF27591B99F0DE
:1020A000593F50F4503E68F11A16F040A22F232FEA
:1020B000342F4427585FF3CF469537952795A7953A
:1020C000F0405395C9F77EF41F16BA0B620B730BE1
:1020D000840BBAF09150A1F0FF0FBB1F661F771F52
:1020E000881FC2F70EC0BA0F621F731F841F48F407
:1020F000879577956795B795F7959E3F08F0B0CF90
:102100009395880F08F09927EE0F97958795089576
:102110000E949C100C94470F0E94400F58F00E94A0
:10212000390F40F029F45F3F29F00C94300F511122
:102130000C947B0F0C94360F0E94580F68F3992370
:10214000B1F3552391F3951B550BBB27AA276217B3
:102150007307840738F09F5F5F4F220F331F441FC0
:10216000AA1FA9F335D00E2E3AF0E0E832D09150F4
:102170005040E695001CCAF72BD0FE2F29D0660FE1
:10218000771F881FBB1F261737074807AB07B0E824
:1021900009F0BB0B802DBF01FF2793585F4F3AF02A
:1021A0009E3F510578F00C94300F0C947B0F5F3FED
:1021B000E4F3983ED4F3869577956795B795F795B0
:1021C0009F5FC9F7880F911D9695879597F9089598
:1021D000E1E0660F771F881FBB1F62177307840734
:1021E000BA0720F0621B730B840BBA0BEE1F88F743
:1021F000E09508950E94600F88F09F5798F0B92FDE
:102200009927B751B0F0E1F0660F771F881F991F2B
:102210001AF0BA95C9F714C0B13091F00E947A0F44
:10222000B1E008950C947A0F672F782F8827B85F54
:1022300039F0B93FCCF3869577956795B395D9F783
:102240003EF490958095709561957F4F8F4F9F4F8D
:1022500008950E949F0E08F48FEF08950E949F0E2C
:10226000880B990B0895991B79E004C0991F961764
:1022700008F0961B881F7A95C9F780950895EE0F90
:10228000FF1F0590F491E02D09940F931F93CF93B6
:10229000DF938230910510F482E090E0E091070333
:1022A000F091080330E020E0B0E0A0E0309799F42E
:1022B0002115310509F44AC0281B390B243031059A
:1022C000D8F58A819B816115710589F1FB019383A2
:1022D0008283FE0111C04081518102811381481720
:1022E0005907E0F04817590799F4109761F01296D2
:1022F0000C93129713961C933296CF01DF91CF91D6
:102300001F910F9108950093070310930803F4CFD2
:102310002115310551F04217530738F0A901DB01AF
:102320009A01BD01DF01F801C1CFEF01F9CF909310
:10233000080380930703CDCFFE01E20FF31F8193C3
:1023400091932250310939832883D7CF20910503F7
:1023500030910603232B41F42091030130910401B5
:10236000309306032093050320910101309102016F
:102370002115310541F42DB73EB74091050150912B
:102380000601241B350BE0910503F0910603E217CB
:10239000F307A0F42E1B3F0B2817390778F0AC0188
:1023A0004E5F5F4F2417350748F04E0F5F1F509365
:1023B000060340930503819391939FCFF0E0E0E003
:1023C0009CCFCF93DF930097E9F0FC013297138203
:1023D0001282A0910703B0910803ED0130E020E0E4
:1023E0001097A1F420813181820F931F2091050362
:1023F000309106032817390709F061C0F0930603EE
:10240000E0930503DF91CF910895EA01CE17DF072E
:10241000E8F54A815B819E0141155105B1F7E9015B
:10242000FB83EA8349915991C40FD51FEC17FD072F
:1024300061F4808191810296840F951FE90199834F
:102440008883828193819B838A83F0E0E0E0129607
:102450008D919C9113970097B9F52D913C9111970F
:10246000CD010296820F931F209105033091060340
:102470002817390739F6309751F510920803109252
:102480000703B0930603A0930503BCCFD383C28395
:1024900040815181840F951FC817D90761F44E5FA1
:1024A0005F4F88819981480F591F518340838A81EA
:1024B0009B81938382832115310509F0B0CFF0937E
:1024C0000803E09307039ECFFD01DC01C0CF138218
:1024D0001282D7CFB0E0A0E0E0E7F2E10C94B50FB4
:1024E0008C01009751F4CB010E9445118C01C80169
:1024F000CDB7DEB7E0E10C94D10FFC01E60FF71F7A
:102500009C0122503109E217F30708F49DC0D9015C
:10251000CD91DC911197C617D70798F0C530D1053A
:1025200030F3CE0104978617970708F3C61BD70B25
:102530002297C193D1936D937C93CF010E94E111B7
:10254000D6CF5B01AC1ABD0A4C018C0E9D1EA0912A
:102550000703B0910803512C412CF12CE12C10976A
:1025600031F580910503909106038815990509F0CE
:102570005CC04616570608F058C080910101909142
:102580000201009741F48DB79EB74091050150912B
:102590000601841B950BE817F90708F055C0F09366
:1025A0000603E0930503F90171836083A0CF8D9149
:1025B0009C91119712966C90129713967C9013979A
:1025C000A815B90559F56C0142E0C40ED11CCA1416
:1025D000DB0420F1AC014A195B09DA011296159768
:1025E00080F06282738251834083D9016D937C9322
:1025F000E114F10471F0D7011396FC93EE93129756
:1026000076CF22968C0F9D1FF90191838083F30171
:10261000EFCFF0930803E093070369CF48165906FC
:1026200008F42C017D01D3019ACFCB010E94451102
:102630007C01009749F0AE01B8010E942713C80140
:102640000E94E111870153CF10E000E050CFFB0161
:10265000DC0102C001900D9241505040D8F708951E
:102660006817790768F4FB01DC01E40FF51FA40F7C
:10267000B51F02C002900E9241505040D8F7089505
:102680000C942713FB01DC0101900D920020E1F76F
:102690000895FB0151915523A9F0BF01DC014D9133
:1026A00045174111E1F759F4CD010190002049F09F
:1026B0004D9140154111C9F3FB014111EFCF81E06C
:1026C00090E00197089510E0C2E6D0E004C0FE015A
:1026D0000E943F112196C336D107C9F7F894FFCF66
:1026E0002000000903800000000000C5012F015CEC
:1026F0000112028D016B017F016E616E00696E66D1
:10270000006F766600496E696369616E646F20438D
:102710006F6E74726F6C202E2E2E000D0A00410019
:102720004200430044004500460047004800500076
:10273000302C302C4C65645F31204F4E2300302C00
:10274000302C4C65645F31204F46462300302C30DE
:102750002C4C65645F32204F4E2300302C302C4CC3
:1027600065645F32204F46462300302C302C4C6588
:10277000645F33204F4E2300302C302C4C65645F57
:1027800033204F46462300302C302C52656C652098
:102790004F4E2300302C302C52656C65204F46463E
:1027A0002300302C302C536572766F205345543AF9
:1027B000200045786973746520756E206572726FAC
:1027C0007220656E206C61206C6563747572612087
:1027D00064656C2073656E736F72204448543232A6
:0827E00021002C002C30230025
:107E0000112484B714BE81FFF0D085E080938100F7
:107E100082E08093C00088E18093C10086E0809377
:107E2000C20080E18093C4008EE0C9D0259A86E02C
:107E300020E33CEF91E0309385002093840096BBD3
:107E4000B09BFECF1D9AA8958150A9F7CC24DD24C4
:107E500088248394B5E0AB2EA1E19A2EF3E0BF2EE7
:107E6000A2D0813461F49FD0082FAFD0023811F036
:107E7000013811F484E001C083E08DD089C08234E0
:107E800011F484E103C0853419F485E0A6D080C0E4
:107E9000853579F488D0E82EFF2485D0082F10E0AE
:107EA000102F00270E291F29000F111F8ED06801E7
:107EB0006FC0863521F484E090D080E0DECF843638
:107EC00009F040C070D06FD0082F6DD080E0C81688
:107ED00080E7D80618F4F601B7BEE895C0E0D1E017
:107EE00062D089930C17E1F7F0E0CF16F0E7DF06D8
:107EF00018F0F601B7BEE89568D007B600FCFDCFD4
:107F0000A601A0E0B1E02C9130E011968C91119780
:107F100090E0982F8827822B932B1296FA010C0160
:107F200087BEE89511244E5F5F4FF1E0A038BF0790
:107F300051F7F601A7BEE89507B600FCFDCF97BE46
:107F4000E89526C08437B1F42ED02DD0F82E2BD052
:107F50003CD0F601EF2C8F010F5F1F4F84911BD097
:107F6000EA94F801C1F70894C11CD11CFA94CF0C13
:107F7000D11C0EC0853739F428D08EE10CD085E9AC
:107F80000AD08FE07ACF813511F488E018D01DD067
:107F900080E101D065CF982F8091C00085FFFCCF94
:107FA0009093C60008958091C00087FFFCCF809118
:107FB000C00084FD01C0A8958091C6000895E0E648
:107FC000F0E098E1908380830895EDDF803219F02E
:107FD00088E0F5DFFFCF84E1DECF1F93182FE3DFCA
:107FE0001150E9F7F2DF1F91089580E0E8DFEE27F6
:047FF000FF270994CA
:027FFE00040479
:00000001FF
